:100000000C946E000C94F1050C94CA050C949600A7
:100010000C9496000C9496000C9496000C94960008
:100020000C9496000C9496000C9496000C949600F8
:100030000C9496000C9418060C9496000C94960060
:100040000C9480050C9496000C944E050C94280595
:100050000C9496000C9496000C9496000C949600C8
:100060000C9496000C949600BB04BE04C304C60412
:10007000C904CC04CF04D204D504D804DB04DE04C4
:1000800000000000230026002900000000080002F4
:100090000100000304070000000000000000000051
:1000A0000000250028002B0000000000240027008D
:1000B0002A000404040404040404020202020202EA
:1000C000030303030303010204081020408001021C
:1000D000040810200102040810203F0611241FBE4E
:1000E000CFEFD8E0DEBFCDBF23E0A2EDB2E001C08C
:1000F0001D92AC3DB207E1F712E0A0E0B1E0E6EB03
:10010000F6E102C005900D92A23DB107D9F710E0CB
:10011000CEE6D0E004C02197FE010E945709CD36FB
:10012000D107C9F70E947E060C94590B0C9400006D
:100130002091010230910202F901EE0FFF1FE250FF
:10014000FE4F45815681452BA1F496838583C901D5
:1001500001968A30910528F490930202809301025F
:1001600004C010920202109201021092FE0181E07E
:10017000089580E00895E5EFF2E0A089B18982E07A
:100180008C93A485B5851C92A685B78580E18C9358
:10019000108EA489B58986E08C93A289B3898C914D
:1001A00080618C93A289B3898C9188608C93A28999
:1001B000B3898C9180688C930288F389E02D8081CB
:1001C0008F7D80830895CF93DF9390E0FC01EA5305
:1001D000FF4F2491FC01EE54FF4F84918823C1F01E
:1001E00090E0880F991FFC01E855FF4FC591D4910D
:1001F000FC01E256FF4FA591B4919FB7F894888116
:10020000E22FE0958E2388838C91E823EC939FBFA7
:10021000DF91CF9108952AEE31E0F901419151919A
:100220008417950799F041E0EE3FF407B9F7F9011B
:100230002E5F3F4F40815181452B21F49183808374
:1002400081E0089541E02E3F340789F780E008956A
:100250002AEE31E0F9012E5F3F4F4081518148176E
:10026000590721F41182108281E0089541E02E3F68
:10027000340781F780E00895CF92DF92EF92FF92EA
:100280000F931F93CF93DF936C017A018B01C0E032
:10029000D0E0CE15DF0581F0D8016D918D01D6013A
:1002A000ED91FC910190F081E02DC6010995892B1B
:1002B00011F02196EECF7E01C701DF91CF911F9102
:1002C0000F91FF90EF90DF90CF9008958091DC0226
:1002D0009091DD02A091DE02B091DF020196A11D96
:1002E000B11D8093DC029093DD02A093DE02B093F7
:1002F000DF0284E090E00E9498008091DA02909101
:10030000DB0201968A30910528F49093DB028093FA
:10031000DA0211C01092DB021092DA0285E090E05E
:100320000E9498008091D8029091D90201969093F2
:10033000D9028093D8028091D8029091D9020A976D
:1003400088F01092D9021092D80286E090E00E94C4
:1003500098008091D6029091D70201969093D7028F
:100360008093D6028091D6029091D7020A9788F0A6
:100370001092D7021092D60287E090E00E94980077
:100380008091D4029091D50201969093D5028093EA
:10039000D4028091D4029091D5020A9720F0109255
:1003A000D5021092D4020895089580E090E0089557
:1003B000FC01538D448D252F30E0842F90E0821B6B
:1003C000930B541710F0CF96089501970895FC01F0
:1003D000918D828D981761F0828DDF01A80FB11D7C
:1003E0005D968C91928D9F5F9F73928F90E00895A0
:1003F0008FEF9FEF0895FC01918D828D981731F05A
:10040000828DE80FF11D858D90E008958FEF9FEFAD
:100410000895FC01918D228D892F90E0805C9F4F83
:10042000821B91098F739927089585EF92E00E94AE
:10043000090221E0892B09F420E0822F0895FC01B4
:10044000848DDF01A80FB11DA35ABF4F2C91848D5D
:1004500090E001968F739927848FA689B7892C9392
:10046000A089B1898C91837080648C93938D848DE5
:10047000981306C00288F389E02D80818F7D8083E8
:100480000895EF92FF920F931F93CF93DF93EC01A8
:1004900081E0888F9B8D8C8D981305C0E889F98940
:1004A000808185FD26C0F62E0B8D10E00F5F1F4F5B
:1004B0000F731127E02E8C8DE8120CC00FB607FCCD
:1004C000FACFE889F989808185FFF5CFCE010E94B6
:1004D0001F02F1CF8B8DFE01E80FF11DE35AFF4F94
:1004E000F0829FB7F8940B8FEA89FB898081806244
:1004F0000AC09FB7F894EE89FF896083E889F9897B
:1005000080818370806480839FBF81E090E0DF9171
:10051000CF911F910F91FF90EF900895CF93DF93AC
:10052000EC01888D8823C9F0EA89FB89808185FDEB
:1005300005C0A889B9898C9186FD0FC00FB607FC4C
:10054000F5CF808185FFF2CFA889B9898C9185FF8D
:10055000EDCFCE010E941F02E7CFDF91CF9108952A
:1005600080E090E0892B29F00E94150281110C9403
:10057000000008953FB7F8948091E5029091E6025B
:10058000A091E702B091E80226B5A89B05C02F3FD5
:1005900019F00196A11DB11D3FBFBA2FA92F982FA9
:1005A0008827820F911DA11DB11DBC01CD0142E024
:1005B000660F771F881F991F4A95D1F708952FB7A7
:1005C000F8946091E1027091E2028091E3029091CF
:1005D000E4022FBF08950F931F930E94DF026093E0
:1005E000FD027093FE028093FF029093000385EF5B
:1005F00092E00E94FB0197FF1FC00E94DF02009162
:10060000FD021091FE022091FF0230910003DC01F7
:10061000CB01801B910BA20BB30B0091F90210913F
:10062000FA022091FB023091FC0280179107A20789
:10063000B307E8F28FEF9FEF1F910F910895089590
:10064000E091E902F091EA02818190E0FC01E65735
:10065000FF4F2491FC01EA53FF4F3491FC01EE540B
:10066000FF4FE491EE2309F442C0222339F12330F5
:1006700091F038F42130A9F0223001F584B58F7D56
:1006800012C0273091F02830A1F02430B9F48091C5
:1006900080008F7D03C0809180008F7780938000E1
:1006A0000DC084B58F7784BD09C08091B0008F776D
:1006B00003C08091B0008F7D8093B000F0E0EE0F1A
:1006C000FF1FE058FF4FA591B491EC91E32379F01F
:1006D000E091E902F091EA02A281B3818D919C91AF
:1006E000119701968D939C9381E090E00EC0E0916C
:1006F000E902F091EA02A281B3818D919C91119758
:1007000001978D939C9382E090E095838483089574
:10071000009769F0FC0101900020E9F73197AF01E3
:10072000481B590BBC0185EF92E00C943C0180E022
:1007300090E00895CF93DF930E948803EC018FE24D
:1007400092E00E9488038C0F9D1FDF91CF91089546
:10075000069721F482E392E00C949A030895069799
:1007600021F485E492E00C949A030895069721F40D
:1007700088E592E00C949A030895069721F48BE69D
:1007800092E00C949A0308958530910519F006972C
:1007900039F008958CED92E0FB01918380830895F8
:1007A0008EE792E00C949A038F929F92AF92BF9241
:1007B0000F931F93CF93DF93CDB7DEB7A1970FB6FB
:1007C000F894DEBF0FBECDBF19A2423008F44AE054
:1007D0008E010F5D1F4F842E912CA12CB12CA501F1
:1007E00094010E94E408E62FB901CA0101501109E1
:1007F000EA3014F4E05D01C0E95CD801EC93232BEE
:10080000242B252B61F7C8010E948803A1960FB6FF
:10081000F894DEBF0FBECDBFDF91CF911F910F9136
:10082000BF90AF909F908F900895CF92DF92EF92FC
:10083000FF92CF93DF936C01990FEE08FF08F7FE4C
:1008400013C06DE285EF92E00E944102EC01662741
:100850007727CB016C197D098E099F094AE00E9418
:10086000D403C80FD91F06C04AE0C701B6010E94D1
:10087000D403EC018FE292E00E9488038C0F9D1F4D
:10088000DF91CF91FF90EF90DF90CF900895CF93BD
:10089000DF930697F9F4EB0181E992E00E949A0355
:1008A000E881F98160817181828193814AE00E94AF
:1008B000D4038FE292E00E948803E091E902F09174
:1008C000EA020280F381E02D80819181DF91CF9156
:1008D0000C941504DF91CF9108950E94440BCF92A0
:1008E000DF92EF92FF921F93CF93DF9361E070E06E
:1008F00080E090E00E947E0AEC01009729F01882C7
:1009000061E372E00E94520B85EF92E00E940902BF
:10091000181619060CF056C00E94EB02FC0197FD58
:100920000DC08D32910509F457C0C0970A9708F49D
:1009300053C085EF92E00E94E701EECFC12CD12C8D
:100940007601C701B6017727882799274AE00E94D8
:10095000D4038FE292E00E94880385EA92E00E942D
:100960009A03D12CF6013197EC30F10558F5EC5C87
:10097000FF4F0C94570980EC91E002C080EA91E0AF
:100980000E9428011FC080E891E0FACF80E691E044
:10099000F7CF80E491E0F4CF80E291E0F1CF80ECFA
:1009A00091E00EC080EA91E00BC080E891E008C0C1
:1009B00080E691E005C080E491E002C080E291E031
:1009C0000E940B01CE01DF91CF911F91FF90EF901C
:1009D000DF90CF900C94F509C12CD12C760110E05A
:1009E000E130F105E1F0ED32F105C1F0CF01C09742
:1009F0000A97A8F4AAE0B0E0A70196010E940609B0
:100A00006F01FF0FEE08FF08C60ED71EE81EF91E85
:100A100080E3C81AD108E108F10801C011E085EFB0
:100A200092E00E94E7010E94EB02FC01C0970A9746
:100A3000B8F2E130F105A1F2112309F482CFF0946C
:100A4000E094D094C094C11CD11CE11CF11C79CF5E
:100A50001F920F920FB60F9211242F933F934F9333
:100A60005F936F937F938F939F93AF93BF93EF9316
:100A7000FF9385EF92E00E941F02FF91EF91BF91DB
:100A8000AF919F918F917F916F915F914F913F9126
:100A90002F910F900FBE0F901F9018951F920F92DD
:100AA0000FB60F9211242F938F939F93EF93FF9381
:100AB000E0910503F09106038081E0910B03F09132
:100AC0000C0382FD12C0908180910E038F5F8F73A3
:100AD00020910F03821751F0E0910E03F0E0EB50EC
:100AE000FD4F958F80930E0301C08081FF91EF91A0
:100AF0009F918F912F910F900FBE0F901F9018957F
:100B00001F920F920FB60F9211242F933F938F9342
:100B10009F93AF93BF938091E1029091E202A091E5
:100B2000E302B091E4023091E00223E0230F2D377D
:100B300020F40196A11DB11D05C026E8230F0296E1
:100B4000A11DB11D2093E0028093E1029093E20287
:100B5000A093E302B093E4028091E5029091E60253
:100B6000A091E702B091E8020196A11DB11D80930A
:100B7000E5029093E602A093E702B093E802BF91EA
:100B8000AF919F918F913F912F910F900FBE0F903A
:100B90001F9018951F920F920FB60F9211242F934A
:100BA0003F934F935F936F937F938F939F93AF93F5
:100BB000BF93EF93FF93E091E201F091E301099578
:100BC000FF91EF91BF91AF919F918F917F916F9125
:100BD0005F914F913F912F910F900FBE0F901F90FB
:100BE00018951F920F920FB60F9211242F933F93D7
:100BF0004F935F936F937F938F939F93AF93BF9325
:100C0000EF93FF93E091E001F091E1010995FF91ED
:100C1000EF91BF91AF919F918F917F916F915F9174
:100C20004F913F912F910F900FBE0F901F901895ED
:100C30001F920F920FB60F9211242F933F934F9351
:100C40005F936F937F938F939F93AF93BF93EF9334
:100C5000FF93E091EB02F091EC020995FF91EF9187
:100C6000BF91AF919F918F917F916F915F914F91C4
:100C70003F912F910F900FBE0F901F901895E5EFA9
:100C8000F2E01382128288EE93E0A0E0B0E0848369
:100C90009583A683B78381E292E09183808385EC7C
:100CA00090E09587848784EC90E09787868780EC36
:100CB00090E0918B808B81EC90E0938B828B82EC27
:100CC00090E0958B848B86EC90E0978B868B118ED1
:100CD000128E138E148EE2E9F3E0168217821086CC
:100CE0001186128613861486158616861786108A34
:100CF000118A128A138A148A158A0895789484B501
:100D0000826084BD84B5816084BD85B5826085BD07
:100D100085B5816085BD80916E00816080936E0095
:100D20001092810080918100826080938100809187
:100D30008100816080938100809180008160809338
:100D400080008091B10084608093B1008091B000F8
:100D500081608093B00080917A00846080937A00F3
:100D600080917A00826080937A0080917A0081601D
:100D700080937A0080917A00806880937A00109244
:100D8000C1001092D4031092D5031092D603109292
:100D9000D703109294031092950310929603109229
:100DA00097030E94DF026B017C014B015C0128EB81
:100DB000820E2BE0921EA11CB11C0E94DF026C155A
:100DC0007D058E059F0528F086169706A806B906AC
:100DD000A0F70E94BA024B015C0138EEC32E33E04B
:100DE000D32EE12CF12C0E94BA02DC01CB01881930
:100DF0009909AA09BB09883E9340A105B10598F35A
:100E000031E0C31AD108E108F10848EE840E43E04E
:100E1000941EA11CB11CC114D104E104F10419F702
:100E20000E94BB000E94DF026093940370939503BD
:100E300080939603909397038DEA92E00E94880333
:100E40000E94DF026B017C014B015C018AE0880E8D
:100E5000911CA11CB11C0E94DF026C157D058E0542
:100E60009F0528F086169706A806B906A0F7C1E0E8
:100E7000C093A8030E94BB0080E180938100109280
:100E8000800080E197E2909387008093860082E162
:100E90008093810086E691E09093EC028093EB02D0
:100EA000C0936F0084EE91E09093EA028093E90290
:100EB000E091E601F091E701808191810E941504A3
:100EC000C091E902D091EA0288810E94E300898101
:100ED0000E94E3008881823019F08330B1F43DC173
:100EE00080E0E82FF0E0EE0FFF1FE052FE4F20E21F
:100EF00033E031832083813009F431C1809169006E
:100F00008C7F826080936900E89A0E94DF02672BE1
:100F1000682B692B41F40E94DF0262307105810564
:100F2000910508F4E3C00E94DF020091F1021091E4
:100F3000F2022091F3023091F402601771078207E8
:100F4000930740F46093F1027093F2028093F302EE
:100F50009093F4020091F1021091F2022091F302B9
:100F60003091F4026B017C01C01AD10AE20AF30A43
:100F7000970186010A3F11052105310508F4B6C025
:100F80006093F1027093F2028093F3029093F40263
:100F900084EF91E0A0E0B0E08093A0039093A103E0
:100FA000A093A203B093A3031092A4031092A503ED
:100FB0001092A6031092A703809198039091990331
:100FC000A0919A03B0919B0380939C0390939D03FF
:100FD000A0939E03B0939F030E94DF026093980347
:100FE0007093990380939A0390939B030E94DF026E
:100FF0006093940370939503809396039093970363
:101000000E94DF026B017C018EEB92E00E9488035C
:101010004AE061E070E080E090E00E94D40385EC5B
:1010200092E00E9488034AE0C701B6010E94D403FF
:1010300087EC92E00E948803809198039091990335
:10104000A0919A03B0919B03A7019601281B390B2D
:101050004A0B5B0BCA01B9014AE00E94D40387EC3A
:1010600092E00E9488038091980390919903A09147
:101070009A03B0919B0300919C0310919D032091D2
:101080009E0330919F03BC01CD01601B710B820B4D
:10109000930B4AE00E94D40389EC92E00E948803FB
:1010A0000E94DF024AE00E94D4038BEC92E00E948F
:1010B0009A030E94DF026B017C014B015C0135E069
:1010C000830E911CA11CB11C0E94DF026C157D05D2
:1010D0008E059F0508F04BC00E94DF0260939803C5
:1010E0007093990380939A0390939B030EEF11E002
:1010F000DD24D39410920100109200008091FF0132
:1011000090910002FC01EE0FFF1FE250FE4FE580C0
:10111000F680E114F10491F1F0920100E0920000F8
:101120001682158201968A30910528F49093000268
:101130008093FF0104C0109200021092FF012091E1
:10114000FF01309100028091010290910202281764
:10115000390719F5D092FE0120C081E0C2CE8091FE
:101160006900837F886080936900E99ACECE8616F5
:101170009706A806B90608F0A7CFAECFE091EA011E
:10118000F091EB010190F081E02D4DEE52E06FEE19
:1011900072E080E090E00995ADCFCCEED1E0E9912E
:1011A000F99182819381039759F0309749F001902A
:1011B000F081E02D4DEE52E06FEE72E0C70109952F
:1011C0000C171D0761F796CFA1E21A2EAA1BBB1BB5
:1011D000FD010DC0AA1FBB1FEE1FFF1FA217B30703
:1011E000E407F50720F0A21BB30BE40BF50B661F19
:1011F000771F881F991F1A9469F7609570958095DD
:1012000090959B01AC01BD01CF0108950E94480952
:10121000A59F900DB49F900DA49F800D911D11244A
:1012200008952F923F924F925F926F927F928F928A
:101230009F92AF92BF92CF92DF92EF92FF920F9365
:101240001F93CF93DF93CDB7DEB7CA1BDB0B0FB66F
:10125000F894DEBF0FBECDBF09942A88398848882C
:101260005F846E847D848C849B84AA84B984C884C2
:10127000DF80EE80FD800C811B81AA81B981CE0FB9
:10128000D11D0FB6F894DEBF0FBECDBFED0108959E
:10129000A29FB001B39FC001A39F700D811D1124B7
:1012A000911DB29F700D811D1124911D0895EE0FA7
:1012B000FF1F0590F491E02D09940F931F93CF9396
:1012C000DF938230910510F482E090E0E091DA0340
:1012D000F091DB0320E030E0A0E0B0E0309719F1BE
:1012E000408151810281138148175907C8F0841742
:1012F000950769F4109731F012960C931297139694
:101300001C9327C00093DA031093DB0322C021153E
:10131000310519F04217530718F49A01BD01EF0186
:10132000DF01F801DBCF21153105F9F0281B390B5E
:101330002430310580F48A819B816115710521F08B
:10134000FB019383828304C09093DB038093DA03D1
:10135000FE01329644C0FE01E20FF31F8193919388
:1013600022503109398328833AC02091D803309123
:10137000D903232B41F42091190230911A023093A2
:10138000D9032093D8032091170230911802211518
:10139000310541F42DB73EB740911B0250911C021C
:1013A000241B350BE091D803F091D903E217F30722
:1013B000A0F42E1B3F0B2817390778F0AC014E5FC5
:1013C0005F4F2417350748F04E0F5F1F5093D90326
:1013D0004093D8038193919302C0E0E0F0E0CF0105
:1013E000DF91CF911F910F910895CF93DF930097D5
:1013F00009F481C0FC01329713821282A091DA03B2
:10140000B091DB03109781F420813181820F931F0B
:101410002091D8033091D9032817390751F5F0935B
:10142000D903E093D80367C0ED0120E030E0CE1788
:10143000DF0740F44A815B819E0141155105F1F0BF
:10144000EA01F5CFD383C28340815181840F951F78
:10145000C817D90759F488819981840F951F02967E
:10146000918380838A819B819383828321153105B7
:1014700029F4F093DB03E093DA033DC0E901FB8339
:10148000EA8349915991C40FD51FEC17FD0761F408
:1014900080819181840F951F0296E9019983888349
:1014A000828193819B838A83E0E0F0E012968D91A4
:1014B0009C911397009719F0FD01DC01F7CF8D91F6
:1014C0009C9111979D012E5F3F4F820F931F20919A
:1014D000D8033091D9032817390769F4309729F4D4
:1014E0001092DB031092DA0302C013821282B093CF
:1014F000D903A093D803DF91CF910895A0E0B0E085
:10150000E4E8FAE00C941509EC01009721F4CB0112
:101510000E945D09B4C0FC01E60FF71F9C01225038
:101520003109E217F30708F4A8C0D9010D911C9105
:10153000119706171707B0F00530110508F49BC086
:10154000C80104978617970708F495C0025011093F
:10155000061B170B019311936D937C93CF010E948F
:10156000F50989C05B01A01AB10A4C01800E911ED9
:10157000A091DA03B091DB03612C712CE12CF12CEA
:10158000109709F446C08D919C911197A815B90543
:10159000B1F56C0142E0C40ED11CCA14DB0478F131
:1015A0004C018A189B08640142E0C40ED11C1296BB
:1015B000BC9012971396AC91B5E0CB16D10440F0D5
:1015C000B282A38391828082D9016D937C9309C0FA
:1015D0000E5F1F4F800F911FF90191838083EB2DC8
:1015E000FA2FE114F10431F0D7011396FC93EE9336
:1015F000129741C0F093DB03E093DA033CC0681616
:10160000790608F43C017D0112960D90BC91A02D45
:10161000B7CF8091D8039091D90388169906E1F449
:1016200066167706C8F48091170290911802009709
:1016300041F48DB79EB740911B0250911C02841B50
:10164000950BE817F907C8F4F093D903E093D80392
:10165000F901718360830FC0CB010E945D097C0199
:10166000009759F0A801BE010E94490BCE010E94CB
:10167000F509C70104C0CE0102C080E090E0CDB7FB
:10168000DEB7EEE00C94310981E090E0F8940C9420
:10169000590BFB01DC0102C001900D9241505040FA
:1016A000D8F70895FB01DC0101900D920020E1F7CD
:0616B0000895F894FFCF3D
:1016B6006F040000000000000000000069646C6513
:1016C6005F66636E0000000000000000000000007E
:1016D600A803000000000000000000007461736BA6
:1016E600203600000000000000000000000000009E
:1016F600AF03000000000000000000007461736B7F
:10170600203500000000000000000000000000007E
:10171600B603000000000000000000007461736B57
:10172600203400000000000000000000000000005F
:10173600BD03000000000000000000007461736B30
:101746002033000000000000000000000000000040
:10175600C403000000000000000000007461736B09
:101766002032000000000000000000000000000021
:10177600470400000000000000000000726F746162
:1017860072795F656E636F6465725F66636E000093
:101796001F031F030203D20200000001C001A001C3
:1017A6008001600100000000000000000000010050
:1017B6000000000000000000000000000000000023
:1017C600000000000000000000DC038000000000B4
:1017D6000041023C01D8018E020902E701FB010D1E
:1017E6000A00362074617265612054494D455220C5
:1017F6003173200A00352074617265612054494DA9
:101806004552203173200A003420746172656120CC
:1018160054494D4552203173200A003320746172B9
:1018260065612054494D4552203173200A0032200B
:1018360074617265612054494D4552203173200A06
:1018460000726F746172795F656E636F6465725F53
:1018560066636E0A00202D2D2D2D200A00564D445C
:1018660050565F317C315F564D4450560A00564DF6
:101876004450455F003A323A007C005F564D445072
:0218860045001B
:00000001FF
