:100000000C9435000C945D000C945D000C945D0024
:100010000C945D000C945D000C945D000C945D00EC
:100020000C945D000C945D000C945D000C945D00DC
:100030000C945D000C9403040C945D000C945D0022
:100040000C94B9030C945D000C9487030C94610329
:100050000C945D000C945D000C945D000C945D00AC
:100060000C945D000C945D002A0411241FBECFEF98
:10007000D8E0DEBFCDBF23E0AEE8B2E001C01D9204
:10008000A239B207E1F712E0A0E0B1E0E8E2FDE05A
:1000900002C005900D92AE38B107D9F710E0C5E364
:1000A000D0E004C02197FE010E948706C433D10727
:1000B000C9F70E9469040C9492060C9400002091E8
:1000C000CB013091CC01F901EE0FFF1FE853FE4F39
:1000D00045815681452BA1F496838583C9010196FC
:1000E0008A30910528F49093CC018093CB0104C011
:1000F0001092CC011092CB011092C80181E00895BA
:1001000080E00895EFEAF2E0A089B18982E08C9363
:10011000A485B5851C92A685B78580E18C93108E49
:10012000A489B58986E08C93A289B3898C9180617A
:100130008C93A289B3898C9188608C93A289B389AE
:100140008C9180688C930288F389E02D80818F7D6B
:1001500080830895CF92DF92EF92FF920F931F93C7
:10016000CF93DF936C017A018B01C0E0D0E0CE1514
:10017000DF0581F0D8016D918D01D601ED91FC91E3
:100180000190F081E02DC6010995892B11F021968F
:10019000EECF7E01C701DF91CF911F910F91FF90AC
:1001A000EF90DF90CF9008958091980290919902FE
:1001B000A0919A02B0919B020196A11DB11D80935E
:1001C000980290939902A0939A02B0939B0284E0C4
:1001D00090E00E945F0080919602909197020196B4
:1001E0008A30910528F4909397028093960211C06B
:1001F000109297021092960285E090E00E945F00B4
:10020000809194029091950201969093950280932B
:10021000940280919402909195020A9788F010922E
:1002200095021092940286E090E00E945F00809117
:10023000920290919302019690939302809392027E
:1002400080919202909193020A9788F01092930203
:100250001092920287E090E00E945F0080919002ED
:1002600090919102019690939102809390028091D7
:100270009002909191020A9720F0109291021092B0
:1002800090020895089580E090E00895FC01538D58
:10029000448D252F30E0842F90E0821B930B541760
:1002A00010F0CF96089501970895FC01918D828DED
:1002B000981761F0828DDF01A80FB11D5D968C91BA
:1002C000928D9F5F9F73928F90E008958FEF9FEFC5
:1002D0000895FC01918D828D981731F0828DE80F81
:1002E000F11D858D90E008958FEF9FEF0895FC013B
:1002F000918D228D892F90E0805C9F4F821B910908
:100300008F73992708958FEA92E00E94770121E088
:10031000892B09F420E0822F0895FC01848DDF01F0
:10032000A80FB11DA35ABF4F2C91848D90E0019668
:100330008F739927848FA689B7892C93A089B18957
:100340008C91837080648C93938D848D981306C0F8
:100350000288F389E02D80818F7D80830895EF925C
:10036000FF920F931F93CF93DF93EC0181E0888F6F
:100370009B8D8C8D981305C0E889F989808185FD56
:1003800026C0F62E0B8D10E00F5F1F4F0F73112745
:10039000E02E8C8DE8120CC00FB607FCFACFE8896E
:1003A000F989808185FFF5CFCE010E948D01F1CFC3
:1003B0008B8DFE01E80FF11DE35AFF4FF0829FB7CE
:1003C000F8940B8FEA89FB89808180620AC09FB70D
:1003D000F894EE89FF896083E889F98980818370C8
:1003E000806480839FBF81E090E0DF91CF911F9177
:1003F0000F91FF90EF900895CF93DF93EC01888DDC
:100400008823C9F0EA89FB89808185FD05C0A88918
:10041000B9898C9186FD0FC00FB607FCF5CF80819E
:1004200085FFF2CFA889B9898C9185FFEDCFCE01E8
:100430000E948D01E7CFDF91CF91089580E090E099
:10044000892B29F00E94830181110C9400000895EA
:100450003FB7F8948091A1029091A202A091A302CB
:10046000B091A40226B5A89B05C02F3F19F00196B4
:10047000A11DB11D3FBFBA2FA92F982F8827820F2A
:10048000911DA11DB11DBC01CD0142E0660F771F7A
:10049000881F991F4A95D1F708958F929F92AF9226
:1004A000BF92CF92DF92EF92FF926B017C010E948C
:1004B00028024B015C01C114D104E104F104F1F004
:1004C0000E942802DC01CB0188199909AA09BB09FD
:1004D000883E9340A105B10570F321E0C21AD1080E
:1004E000E108F10888EE880E83E0981EA11CB11C7B
:1004F000C114D104E104F10419F7DDCFFF90EF90AE
:10050000DF90CF90BF90AF909F908F9008952FB7BE
:10051000F89460919D0270919E0280919F0290914B
:10052000A0022FBF0895009769F0FC010190002000
:10053000E9F73197AF01481B590BBC018FEA92E0F4
:100540000C94AA0080E090E00895CF93DF930E947E
:100550009302EC0183EF91E00E9493028C0F9D1FA8
:10056000DF91CF910895069721F486EF91E00C94E6
:10057000A5020895069721F489E092E00C94A50263
:100580000895069721F48CE192E00C94A502089559
:100590008630910519F0079729F008958FE292E0CF
:1005A0000C94A50280918E0290918F0201969093F7
:1005B0008F0280938E0280FF09C080E691E09093C5
:1005C000C7018093C60183E090E008C080EA91E013
:1005D0009093C7018093C60181E090E090938501DC
:1005E0008093840108958430910519F0069739F0BD
:1005F000089588E992E0FB0191838083089582E465
:1006000092E00C94A5028F929F92AF92BF920F93AB
:100610001F93CF93DF93CDB7DEB7A1970FB6F894B2
:10062000DEBF0FBECDBF19A2423008F44AE08E01F2
:100630000F5D1F4F842E912CA12CB12CA50194018C
:100640000E946506E62FB901CA0101501109EA307E
:1006500014F4E05D01C0E95CD801EC93232B242B5A
:10066000252B61F7C8010E949302A1960FB6F8945A
:10067000DEBF0FBECDBFDF91CF911F910F91BF9015
:10068000AF909F908F9008950E948D06CF93DF9337
:100690000697A1F4EB0185E592E00E94A502E881AE
:1006A000F98160817181828193814AE00E94030314
:1006B00083EF91E0DF91CF910C949302DF91CF9182
:1006C00008951F920F920FB60F9211242F933F930C
:1006D0004F935F936F937F938F939F93AF93BF934A
:1006E000EF93FF938FEA92E00E948D01FF91EF91CB
:1006F000BF91AF919F918F917F916F915F914F913A
:100700003F912F910F900FBE0F901F9018951F9241
:100710000F920FB60F9211242F938F939F93EF9305
:10072000FF93E091BF02F091C0028081E091C50289
:10073000F091C60282FD12C090818091C8028F5F45
:100740008F732091C902821751F0E091C802F0E046
:10075000E155FD4F958F8093C80201C08081FF91C4
:10076000EF919F918F912F910F900FBE0F901F903F
:1007700018951F920F920FB60F9211242F933F934B
:100780008F939F93AF93BF9380919D0290919E0210
:10079000A0919F02B091A00230919C0223E0230F10
:1007A0002D3720F40196A11DB11D05C026E8230FA9
:1007B0000296A11DB11D20939C0280939D029093EF
:1007C0009E02A0939F02B093A0028091A1029091FB
:1007D000A202A091A302B091A4020196A11DB11D95
:1007E0008093A1029093A202A093A302B093A402CB
:1007F000BF91AF919F918F913F912F910F900FBE1D
:100800000F901F9018951F920F920FB60F92112400
:100810002F933F934F935F936F937F938F939F9308
:10082000AF93BF93EF93FF93E091A502F091A602DF
:100830000995FF91EF91BF91AF919F918F917F911A
:100840006F915F914F913F912F910F900FBE0F903D
:100850001F901895EFEAF2E01382128288EE93E07F
:10086000A0E0B0E084839583A683B78385EE91E012
:100870009183808385EC90E09587848784EC90E079
:100880009787868780EC90E0918B808B81EC90E05D
:10089000938B828B82EC90E0958B848B86EC90E03E
:1008A000978B868B118E128E138E148EECE4F3E0F0
:1008B0001682178210861186128613861486158674
:1008C00016861786108A118A128A138A148A158A44
:1008D0000895789484B5826084BD84B5816084BDB8
:1008E00085B5826085BD85B5816085BD80916E00CE
:1008F000816080936E0010928100809181008260FF
:10090000809381008091810081608093810080913B
:1009100080008160809380008091B100846080932A
:10092000B1008091B00081608093B00080917A0026
:10093000846080937A0080917A00826080937A004C
:1009400080917A00816080937A0080917A0080683B
:1009500080937A001092C10010928E0310928F0340
:10096000109290031092910310924E0310924F0335
:1009700010925003109251030E9487026B017C0178
:100980004B015C0128EB820E2BE0921EA11CB11CD6
:100990000E9487026C157D058E059F0528F086163E
:1009A0009706A806B906A0F768EE73E080E090E02D
:1009B0000E944D020E9482000E94870260934E03B3
:1009C00070934F03809350039093510388E692E015
:1009D0000E9493020E9487026B017C014B015C0123
:1009E0003AE0830E911CA11CB11C0E9487026C1579
:1009F0007D058E059F0528F086169706A806B90680
:100A0000A0F7C1E0C09362030E94820080E180935E
:100A100081001092800080E197E29093870080939C
:100A2000860082E18093810084ED90E09093A6029D
:100A30008093A502C0936F000E948702672B682BEA
:100A4000692B41F40E94870262307105810591058E
:100A500008F4E3C00E948702C090AB02D090AC02C1
:100A6000E090AD02F090AE026C157D058E059F05FD
:100A700040F46093AB027093AC028093AD0290930C
:100A8000AE02C090AB02D090AC02E090AD02F0900C
:100A9000AE029B01AC012C193D094E095F096901A9
:100AA0007A013AEFC316D104E104F10408F4B5C0A9
:100AB0006093AB027093AC028093AD029093AE0250
:100AC00084EF91E0A0E0B0E080935A0390935B0341
:100AD000A0935C03B0935D0310925E0310925F03DA
:100AE000109260031092610380915203909153031E
:100AF000A0915403B09155038093560390935703EC
:100B0000A0935803B09359030E9487026093520345
:100B10007093530380935403909355030E9487026C
:100B200060934E0370934F0380935003909351034F
:100B30000E9487026B017C0189E792E00E94930288
:100B40004AE061E070E080E090E00E94030380E80A
:100B500092E00E9493024AE0C701B6010E9403039B
:100B600082E892E00E949302809152039091530395
:100B7000A0915403B0915503A7019601281B390B8E
:100B80004A0B5B0BCA01B9014AE00E94030382E8E9
:100B900092E00E9493028091520390915303A0919E
:100BA0005403B0915503C0905603D0905703E09082
:100BB0005803F0905903BC01CD016C197D098E09D1
:100BC0009F094AE00E94030384E892E00E94930296
:100BD0000E9487024AE00E94030386E892E00E9496
:100BE000A5020E9487026B017C014B015C0135E08C
:100BF000830E911CA11CB11C0E9487026C157D05FF
:100C00008E059F05F0F50E94870260935203709352
:100C10005303809354039093550311E01092010005
:100C2000109200008091C9019091CA01FC01EE0F61
:100C3000FF1FE853FE4FE580F680E114F10441F117
:100C4000F0920100E09200001682158201968A302F
:100C5000910528F49093CA018093C90104C01092B1
:100C6000CA011092C9012091C9013091CA01809135
:100C7000CB019091CC012817390789F41093C80152
:100C80000EC086169706A806B90608F0B5CFBBCFEA
:100C90006AE070E080E090E00E944D02BFCFC0ECBF
:100CA000D1E0E991F99184819581039749F0019010
:100CB000F081E02D47EA52E069EA72E0C701099548
:100CC00041E0C83CD40769F7A9CFA1E21A2EAA1BBC
:100CD000BB1BFD010DC0AA1FBB1FEE1FFF1FA217EC
:100CE000B307E407F50720F0A21BB30BE40BF50BE9
:100CF000661F771F881F991F1A9469F76095709572
:100D0000809590959B01AC01BD01CF010895EE0F38
:100D1000FF1F0590F491E02D099481E090E0F89494
:080D20000C949206F894FFCF39
:100D2800C102000000000000000000007461736B45
:100D38002036000000000000000000000000000055
:100D4800C802000000000000000000007461736B1E
:100D58002035000000000000000000000000000036
:100D68004603000000000000000000007461736B7F
:100D78002036000000000000000000000000000015
:100D8800BA02000000000000000000007461736BEC
:100D980020350000000000000000000000000000F6
:100DA800F302000000000000000000007461736B93
:100DB80020350000000000000000000000000000D6
:100DC800B302000000000000000000007461736BB3
:100DD80020360000000000000000000000000000B5
:100DE8008001400120010001010000000000000016
:100DF80000000000000000000000000000000000EB
:100E08000000000000AF01AA004601FC017701556F
:100E18000169010D0A003620746172656120544928
:100E28004D4552203173200A003520746172656186
:100E38002054494D4552203173200A0034207461F2
:100E48007265612054494D4552203173200A0033A0
:100E58002074617265612054494D455220317320D8
:100E68000A00312074617265612054494D45522051
:100E78003173200A00322074617265612054494D33
:100E88004552203173200A00564D4450565F317C3C
:100E9800315F564D4450560A00564D4450455F0048
:0E0EA8003A323A007C005F564D44504500003F
:00000001FF
